:020000040800F2
:1000000090170020591700086302000865020008D5
:10001000690200086D02000871020008000000007B
:100020000000000000000000000000007502000851
:100030007702000800000000790200087B02000837
:100040007317000873170008731700087317000868
:100050007317000873170008731700087317000858
:100060007317000873170008731700087317000848
:100070007317000873170008731700087317000838
:100080007317000873170008731700087317000828
:100090007317000873170008731700087317000818
:1000A0007317000873170008731700087317000808
:1000B00073170008731700087317000873170008F8
:1000C00073170008731700087317000873170008E8
:1000D00073170008CF16000873170008731700087D
:1000E00073170008731700087317000873170008C8
:1000F00073170008731700087317000873170008B8
:1001000073170008731700087317000873170008A7
:100110007317000873170008731700087317000897
:100120007317000873170008731700087317000887
:1001300000F002F800F06BF80AA090E8000C82448E
:100140008344AAF10107DA4501D100F060F8AFF26B
:10015000090EBAE80F0013F0010F18BFFB1A43F0A5
:10016000010318472C4A00004C4A000010F8013BDC
:100170000A4413F0030408BF10F8014B1D1108BF17
:1001800010F8015B641E05D010F8016B641E01F8C5
:10019000016BF9D1002D15D010F8014B03F00C03C1
:1001A0000C2BA1EB04040ABF10F8013BA4EB831451
:1001B000A4EB032405F1010314F8016B5B1E01F8A5
:1001C000016BF9D5914238BF10F8013BD1D370478C
:1001D0000023002400250026103A28BF78C1FBD850
:1001E000520728BF30C148BF0B607047662904F032
:1001F0007680002070471FB502F0B6FD0400002095
:10020000002103F003FBE0601FBD10B510BD02F03C
:10021000ABFE1146FFF7EFFF00F008F802F0C9FE51
:1002200003B4FFF7F2FF03BC01F0F6F901F08AF91D
:100230004FF4A06001F0B0FA4FF4E13001F0FBF9A7
:1002400000F00CF900F0ACF900F02EF900F087FD99
:1002500000F0ECFB012001F05BF801E001F08AF80E
:10026000FCE7704700BFFEE700BFFEE700BFFEE708
:1002700000BFFEE770477047704770470CB500201D
:10028000019000906C48006840F480306A49086032
:1002900000BF6948006800F4003000900198401CDD
:1002A0000190009818B90198B0F5A06FF1D162489B
:1002B000006800F4003010B10120009001E000203F
:1002C00000900098012843D15C48006840F010007D
:1002D0005A4908600846006820F003000860084694
:1002E000006840F002000860534840685249486086
:1002F0000846406848600846406840F480604860AE
:100300000846406820F47C1048600846406840F485
:10031000E81048600846006840F08070086000BF40
:100320004548006800F000700028F9D04248406855
:1003300020F00300404948600846406840F0020051
:10034000486000BF3C48406800F00C000828F9D124
:100350000CBD10B5FFF792FF10BD10B53648006810
:1003600040F00100344908600846406834490840BC
:100370003149486008460068324908402E49086003
:100380000846006820F4802008600846406820F491
:10039000FE0048604FF41F008860FFF7DAFF4FF05F
:1003A00000602949086010BD10B50021002000221E
:1003B000214B5B6803F00C0121B1042906D0082908
:1003C00028D107E0214B224C236027E01F4B204C13
:1003D000236023E0184B5B6803F47010164B5B68D6
:1003E00003F48032022303EB904022B9194B4343BC
:1003F000174C23600DE0104B5B6803F4003323B10E
:10040000144B4343124C236003E0104B4343104C06
:10041000236003E00D4B0E4C236000BF00BF064B72
:100420005B68C3F303130C4CE15C094B1B68CB40C6
:10043000074C236010BD0000001002400020024065
:100440000000FFF8FFFFF6FE08ED00E000127A0062
:100450000000002000093D000400002008B5012133
:10046000482001F04BFF2020ADF8000010208DF84F
:10047000030003208DF802006946094801F082FC60
:100480002021074801F02BFD2020ADF8000069462F
:10049000044801F077FC2021024801F020FD08BD4E
:1004A000000C01400018014008B50121442001F072
:1004B00025FF1C20ADF8000048208DF80300694698
:1004C000344801F05FFC0120ADF8000028208DF8D1
:1004D00003006946304801F055FC08BD10B50446DC
:1004E00014B101202D4908702C480078002836D01E
:1004F0000121294801F0D9FC01280ED010212548FE
:1005000001F0D3FC48B10821224801F0CEFC20B113
:100510000421204801F0C9FC08BB0A2001F04FF873
:1005200000201E49087001211B4801F0BEFC012873
:1005300000D110BD1021174801F0B7FC08B9022006
:10054000F7E70821134801F0B0FC08B90320F0E7F1
:100550000421104801F0A9FCD0B90420E9E70121E9
:100560000D4801F0A2FC98B910210A4801F09DFC49
:1005700001280DD10821074801F097FC012807D177
:100580000421044801F091FC012801D103490870BD
:100590000020CEE7001801400008014014000020B0
:1005A00000B587B001214FF4017001F0A7FE4FF4B0
:1005B000004001F007FE0220ADF8040000208DF895
:1005C000070001A9924801F0DDFB924801F052F9C1
:1005D000002002908DF80C008DF80D004FF4602083
:1005E00004900020059001208DF8180002A9894888
:1005F00001F067F90121874801F08FF9854801F082
:10060000AEF900BF834801F0AFF90028FAD1814864
:1006100001F0B4F900BF7F4801F0B5F90028FAD124
:1006200007B000BD10B504460723002221467948D3
:1006300001F0DFF90121774801F0AFF900BF022195
:10064000744801F01BFB0028F9D0724801F038FA19
:1006500010BD2DE9F04107460C460025002608E0B4
:100660003846FFF7DFFF0544052000F0A8FF701CA7
:10067000C6B2A642F4DBB5FBF4F080B2BDE8F0816F
:100680002DE9F04167E00120634908606349C1F842
:10069000940108E00A210120FFF7DBFF044603F084
:1006A000C9FC5F4908600020FFF718FF0428F1D15A
:1006B00000205949086008E00A210120FFF7C9FF1E
:1006C000044603F0B7FC574908600020FFF706FF17
:1006D0000428F1D10020544908605148016851486C
:1006E000006803F087FD514908600846006803F080
:1006F00013FC064600224E4B03F078F9044603F043
:100700009BF84C4908604C4801684A48006803F06F
:10071000A5FC4A4908600C2346480021026838209D
:1007200000F07BFA0C23454801210268412000F0CB
:1007300074FA424801684248006803F019FC4049D5
:1007400008601023084602210268362000F065FA8E
:1007500001203C4908703B480078002893D0BDE850
:10076000F0812DE9F0413EE00A210120FFF771FF01
:10077000044603F05FFC2D4908600846006803F05A
:10078000CBFB064600222A4B03F030F9044603F067
:1007900053F828490860284801682648006803F093
:1007A0005DFC264908600C23224800210268412094
:1007B00000F033FA0C23214801210268412000F0A7
:1007C0002CFA1E4801681E48006803F0D1FB1C4942
:1007D00008601023084603210268362000F01DFA45
:1007E000012018490870174800780028BCD0BDE8DF
:1007F000F08110B5044624B1012C05D1FFF740FF6C
:1008000003E0FFF7AEFF00E000BF00BF10BD000037
:10081000000801400024014094012342008021424D
:100820003410002038100020948121423010002024
:100830000000104040100020201000202410002054
:10084000281000203C10002010B54021FE4801F087
:1008500046FB8021FC4801F042FB8021FA4801F070
:1008600040FB4021F84801F03CFB10BD10B5402191
:10087000F54801F034FB8021F34801F032FB802180
:10088000F14801F02CFB10BD10B54021EE4801F0FD
:1008900026FB4021EC4801F024FB10BD2DE9F0417E
:1008A00005462C464021E84801F01BFB002619E0D4
:1008B000274607F08007802F04D18021E24801F00D
:1008C0000EFB03E08021E04801F00BFB6006040E04
:1008D0004021DD4801F003FB4021DB4801F001FB32
:1008E000701CC6B2082EE3DBBDE8F08110B50446EB
:1008F000FFF7AAFF7820FFF7D1FFFFF7C5FF002021
:10090000FFF7CCFFFFF7C0FF2046FFF7C7FFFFF759
:10091000BBFFFFF7ABFF10BD10B50446FFF794FF18
:100920007820FFF7BBFFFFF7AFFF4020FFF7B6FFD0
:10093000FFF7AAFF2046FFF7B1FFFFF7A5FFFFF77C
:1009400095FF10BD70B504460D461DB1E0B2FFF72E
:10095000E3FF02E0E0B2FFF7C9FF70BD70B50646E5
:10096000002418E004F1B0000021FFF7EBFF0021A4
:100970000846FFF7E7FF00211020FFF7E3FF0025FF
:1009800005E001213046FFF7DDFF681CC5B2802D70
:10099000F7DB601CC4B2082CE4DB70BD06E041F656
:1009A000650100E0491E0029FCD1401E0028F6D157
:1009B0007047014605E0002001E0421CD0B27B28D0
:1009C000FBDB0A1EA1F10101F5D1704770B50446A9
:1009D0000D4605F1B0000021FFF7B4FF102141EAF8
:1009E00014100021FFF7AEFF04F00F000021FFF705
:1009F000A9FF70BD10B500218D20FFF7A3FF0021D6
:100A00001420FFF79FFF0021AF20FFF79BFF10BDD1
:100A100010B500218D20FFF795FF00211020FFF772
:100A200091FF0021AE20FFF78DFF10BD70B50024AF
:100A300018E004F1B0000021FFF784FF0021084610
:100A4000FFF780FF00211020FFF77CFF002505E065
:100A500001210020FFF776FF681CC5B2802DF7DB6F
:100A6000601CC4B2082CE4DB70BD70B5002418E033
:100A700004F1B0000021FFF765FF00210846FFF7F1
:100A800061FF00211020FFF75DFF002505E0012137
:100A90000846FFF757FF681CC5B2802DF7DB601CC6
:100AA000C4B2082CE4DB70BD2DE9F04707460E46C2
:100AB0009046994600250024A8F12000C5B27F2F5A
:100AC00002DD0027B01CC6B2B9F1100F24D13146A7
:100AD0003846FFF77BFF002408E004EB05115B4A72
:100AE000505C0121FFF72EFF601CC4B2082CF4DB20
:100AF000701CC1B23846FFF769FF002409E004EB1F
:100B000005110831514A505C0121FFF71BFF601CA1
:100B1000C4B2082CF3DB12E031463846FFF756FF2B
:100B200000240AE005EB4501494A02EB4101085D5A
:100B30000121FFF707FF601CC4B2062CF2DBBDE801
:100B4000F08710B50246012000E050430B1EA1F1D2
:100B50000104E1B2F9D110BD2DE9FF5F07469146CE
:100B60001E460E9D4FF0000A002435E0301B401E4B
:100B7000C1B20A20FFF7E5FFB9FBF0F00A21B0FB94
:100B8000F1F201FB1208BAF1000F14D1701EA0425D
:100B900011DDB8F1000F0CD1AB4605EBDB7149104C
:100BA00001FB0471C8B22B4620220199FFF77CFF9C
:100BB00010E04FF0010AAB4605EBDB71491001FB79
:100BC0000471C8B208F13001CAB22B460199FFF78F
:100BD0006BFF00BF601CC4B2B442C7DBBDE8FF9F1F
:100BE0002DE9F04104460F461546984600260FE0D1
:100BF000AA5D434639462046FFF756FF04F1080038
:100C0000C4B2782C02DD0024B81CC7B2701CC6B276
:100C1000A85D0028ECD1BDE8F0812DE9F04786B051
:100C20000646894615469A46002003900490059092
:100C3000009001900290284603F06EF907463A466C
:100C40000B4604A1684609E0001401400A4500086B
:100C5000E2420008252E32660000000001F0B8FDD7
:100C6000002405E01DF8040003A90855601CC4B267
:100C70000A2CF7DB082303AA49463046FFF7B0FFEA
:100C800006B0BDE8F0872DE9F04180460E461546D6
:100C9000002731464046FFF799FE00240AE0F94A52
:100CA00002EB8511085D0121FFF74CFE781CC7B2ED
:100CB000601CC4B2102CF2DB701CC1B24046FFF7BE
:100CC00085FE00240CE06900491CEE4A02EB41114C
:100CD000085D0121FFF736FE781CC7B2601CC4B264
:100CE000102CF0DBBDE8F0812DE9F05F06460F46E1
:100CF00090461C46DDF828A04FF0000BE11704EBEE
:100D00005171C910A4EBC10131B92046E11704EBC0
:100D10005171C1F3C70506E02046E11704EB51719C
:100D2000C910491CCDB23D4615E029463046FFF7B3
:100D30004DFEB1460BE059460BF1010B1AF80100CC
:100D40000121FFF7FFFD09F1010000F0FF09C14596
:100D5000F1DB681CC5B2A542E7DBBDE8F09F08B532
:100D600001214FF4947001F0C9FA4FF4FC70ADF812
:100D7000000010208DF8030003208DF80200694662
:100D8000C14800F0FFFF4FF4FC71BF4801F0A7F825
:100D90000320ADF800006946BC4800F0F3FF0321D2
:100DA000BA4801F09CF84FF40040ADF800006946E5
:100DB000B74800F0E7FF4FF40041B54801F08FF865
:100DC000C82000F0FCFB0021AE20FFF7BBFD002196
:100DD0000846FFF7B7FD00211020FFF7B3FD002103
:100DE0004020FFF7AFFD0021B020FFF7ABFD002151
:100DF0008120FFF7A7FD0021FF20FFF7A3FD0021C1
:100E0000A120FFF79FFD0021A620FFF79BFD0021F9
:100E1000A820FFF797FD00213F20FFF793FD002159
:100E2000C820FFF78FFD0021D320FFF78BFD0021A5
:100E30000846FFF787FD0021D520FFF783FD00213D
:100E40008020FFF77FFD0021D820FFF77BFD0021E8
:100E50000520FFF777FD0021D920FFF773FD002162
:100E6000F120FFF76FFD0021DA20FFF76BFD002175
:100E70001220FFF767FD0021DB20FFF763FD002153
:100E80003020FFF75FFD00218D20FFF75BFD002183
:100E90001420FFF757FD0021AF20FFF753FD08BDD9
:100EA00010B5002211461046FFF7EDFE0122002189
:100EB0000F20FFF7E8FE022200211F20FFF7E3FECC
:100EC000032200212E20FFF7DEFE042200213E2017
:100ED000FFF7D9FE052200214E20FFF7D4FE06229F
:100EE00000215E20FFF7CFFE072202210020FFF73E
:100EF000CAFE102367A202210F20FFF771FE0C2209
:100F000002211F20FFF7BFFE0D2202212E20FFF736
:100F1000BAFE0E2202213E20FFF7B5FE0F2202216B
:100F20004E20FFF7B0FE102202215E20FFF7ABFE3D
:100F3000072204210020FFF7A6FE102356A2042159
:100F40000F20FFF74DFE0C2204211F20FFF79BFE10
:100F5000122204212E20FFF796FE132204213E20A8
:100F6000FFF791FE0F2204214E20FFF78CFE102286
:100F700004215E20FFF787FE10BD10B5142200216A
:100F80000846FFF780FE152200210F20FFF77BFEA9
:100F9000102342A200211F20FFF722FE1822002169
:100FA0004E20FFF770FE192200215E20FFF76BFE36
:100FB0001A2200216E20FFF766FE07220221002080
:100FC000FFF761FE102333A202210F20FFF708FE76
:100FD0001B2202211F20FFF756FE1C2202212E2079
:100FE000FFF751FE072202213E20FFF74CFE10239F
:100FF00029A202214E20FFF7F3FD1D2202215E20CF
:10100000FFF741FE1E2202216E20FFF73CFE072261
:1010100004210020FFF737FE102321A204210F2016
:10102000FFF7DEFD1F2204211046FFF72CFE2022D1
:1010300004212E20FFF727FE072206210020FFF7BC
:1010400022FE102317A206210F20FFF7C9FD21223F
:1010500006211F20FFF717FE222206212E20FFF770
:1010600012FE232206213E20FFF70DFE2422062138
:101070004E20FFF708FE252206215E20FFF703FE23
:1010800010BD0000150000200014014000100140B8
:101090000020014053310000533200003A000000AC
:1010A000533300005334000010B50C23A9A20021D3
:1010B0000846FFF795FD0C23A8A200217820FFF732
:1010C0008FFD0C23A6A201210020FFF789FD282215
:1010D00002210020FFF7D7FD292202210F20FFF770
:1010E000D2FD2A2202211F20FFF7CDFD1023AFF2EF
:1010F000540202212E20FFF773FD182202217020D6
:10110000FFF7C1FD072204210020FFF7BCFD1023DB
:10111000AFF2740204210F20FFF762FD1F220421A9
:101120001046FFF7B0FD202204212E20FFF7ABFD73
:10113000072206210020FFF7A6FD1023AFF29C0234
:1011400006210F20FFF74CFD212206211F20FFF76B
:101150009AFD222206212E20FFF795FD232206214B
:101160003E20FFF790FD242206214E20FFF78BFD45
:10117000252206215E20FFF786FD10BD08B53B2223
:1011800000210846FFF77FFD3C2200210F20FFF7DA
:101190007AFD3D2200211F20FFF775FD102002235C
:1011A00000907148002102682E20FFF7D5FC3E22F6
:1011B00000211046FFF767FD072202210020FFF7FC
:1011C00062FD1023AFF2281202210F20FFF708FD65
:1011D0002F2202211F20FFF756FD302202212E2050
:1011E000FFF751FD312202213E20FFF74CFD322254
:1011F00002214E20FFF747FD332202215E20FFF738
:1012000042FD072204210020FFF73DFD1023AFF22D
:101210006C1204210F20FFF7E3FC342204211F206D
:10122000FFF731FD352204212E20FFF72CFD362259
:1012300004213E20FFF727FD372204214E20FFF72F
:1012400022FD08BD08B53F2200210846FFF71BFD1F
:101250003C2200210F20FFF716FD3D2200211F2018
:10126000FFF711FD1020022300903F480021026883
:101270002E20FFF771FC3E2200211046FFF703FDF0
:10128000282202210020FFF7FEFC292202210F2044
:10129000FFF7F9FC2A2202211F20FFF7F4FC10239C
:1012A000AFF2082202212E20FFF79AFC10232F48CC
:1012B000032102683620FFF7B0FC182202217020BB
:1012C000FFF7E1FC072204210020FFF7DCFC1023DC
:1012D000AFF2302204210F20FFF782FC21220421EB
:1012E0001F20FFF7D0FC222204212E20FFF7CBFC89
:1012F000382204213E20FFF7C6FC392204214E206B
:10130000FFF7C1FC3A2204215E20FFF7BCFC08BDB8
:1013100010B50446062C1AD2DFE804F019030610B3
:101320001316FFF7BDFD12E0FFF727FE102310484C
:10133000012102682820FFF770FC08E0FFF7B4FEE7
:1013400005E0FFF71BFF02E0FFF77CFF00BF00BFD7
:1013500010BD00007765696768743A006700000097
:101360006368617267653A002C1000202810002025
:10137000201000202DE9F0416A480078FFF7C8FFEF
:1013800068480078012826D10020FFF7A7F86649B1
:10139000087008460078022802D003281AD10CE011
:1013A000022060490870FFF741FB5E480078FFF7B4
:1013B000AFFF01205D4908600CE002205949087028
:1013C000FFF734FB57480078FFF7A2FF002057498A
:1013D000086000BFA3E053480078022848D10120EC
:1013E000FFF77CF85049087008460078012831D092
:1013F000022804D0032811D0042838D11DE04C481D
:10140000006802F089FD06464A4A4B4B02F046FA54
:10141000044602F011FA4649086028E04448006892
:1014200002F07AFD0646434A434B02F08BFC044629
:1014300002F002FA3E49086019E0032039490870B9
:10144000FFF7F4FA37480078FFF762FF00203B49C6
:1014500008700CE0012033490870FFF7E7FA3148C3
:101460000078FFF755FF00203449087000BF56E0B0
:101470002C480078032823D12C480068FFF7B9F9DD
:101480000020FFF72BF8284908700846007801284B
:101490000AD0042812D123490870FFF7C7FA21485F
:1014A0000078FFF735FF0AE002201E490870FFF7B9
:1014B000BDFA1C480078FFF72BFF00E000BF2EE0CC
:1014C00018480078042826D10020FFF707F81649AD
:1014D000087008460078012802D0042819D109E0D4
:1014E000052010490870FFF7A1FA0E480078FFF7B1
:1014F0000FFF0FE001200B490870FFF797FA09482A
:101500000078FFF705FF0E480068401C0C49086092
:1015100000E000BF03E003480078FFF7F9FEBDE8F4
:10152000F081000019100020181000201C1000206D
:10153000201000209A9999999999B93F3C10002060
:101540002C10002010B56FF0040000F074F92E4844
:1015500000682E49B0FBF1F02D490870084600786C
:1015600000EB4001C1EBC0104FF6FF7101EAC00073
:101570002849088010BD0146254A12784A434FF099
:10158000E0235A6100229A611A46126942F0010270
:101590001A6100BF4FF0E022106900F001021AB199
:1015A00000F48032002AF5D04FF0E022126922F0D8
:1015B00001024FF0E0231A6100229A617047014650
:1015C000144A12884A434FF0E0235A6100229A617C
:1015D0001A46126942F001021A6100BF4FF0E02280
:1015E000106900F001021AB100F48032002AF5D02F
:1015F0004FF0E022126922F001024FF0E0231A615D
:1016000000229A61704700000000002000127A005A
:101610004410002046100020014600BF704700BF64
:10162000494A128802F04002002AF9D0C2B2464B61
:101630001B1D1A80704710B586B00446012144F284
:10164000040000F05BFE4FF40070ADF814000320BE
:101650008DF8160018208DF8170005A93B4800F0FA
:1016600091FB4FF48060ADF8140004208DF8170052
:1016700005A9364800F086FB25208DF800000320E0
:101680008DF801008DF8020001208DF803006846F6
:1016900000F087F801940020ADF80800ADF80A00CA
:1016A000ADF80C00ADF810000C20ADF80E0001A94B
:1016B000254800F0CAFE012240F22551224800F0E0
:1016C0005CFF0121204800F04CFF06B010BD10B5B2
:1016D00040F225511C4801F035F810B31A4800F0CB
:1016E000B1FFC4B21A48008800F40040C8B91848D5
:1016F000008800F4804060B10A2C03D00020144917
:10170000088020E01248008840F40040104908801A
:1017100019E00D2C06D10E48008840F480400C4999
:10172000088010E00A480088C0F30D0009490C54F5
:1017300007480088401C0649088008460088C728DA
:1017400001DD0020088010BD003801400008014084
:101750004C100020641000200948804709480047C9
:10176000FEE7FEE7FEE7FEE7FEE7FEE7FEE7FEE751
:10177000FEE7FEE704480549054A064B70470000AE
:101780005B03000831010008901100209017002031
:10179000901300209013002031490143314A116019
:1017A000704770B5002100230F22C47804B32D4C7C
:1017B000246804F4E064C4F5E064210AC1F1040380
:1017C000CA40447804FA03F18478144021430901A3
:1017D000254C0678A155047804F01F050124AC407F
:1017E00005786D11AD0005F1E025C5F8004109E06F
:1017F000047804F01F050124AC401C4D06787611D6
:1018000045F8264070BD1A4A0A400243154B1B1F7B
:101810001A60704739B1134A121D12680243114B06
:101820001B1D1A6006E00F4A121D126882430D4B01
:101830001B1D1A607047042808D14FF0E021096988
:1018400041F004014FF0E022116107E04FF0E02188
:10185000096921F004014FF0E02211617047000096
:101860000000FA050CED00E000E400E080E100E09B
:1018700080FFFF1F10B50446FA48844208D10121B9
:10188000401500F055FD0021601500F051FD17E0F6
:10189000F548844208D10121001500F049FD0021DE
:1018A000201500F045FD0BE0F048844208D10121ED
:1018B000C80300F03DFD00214FF4004000F038FD6A
:1018C00010BD30B50246002000235068E84C20408F
:1018D0000D790C6844EA0524204350609068E54C7B
:1018E0002040D1E902542C434D7944EA4504204379
:1018F0009060D06A20F470000C7C641EE4B2234334
:1019000040EA0350D06230BD002101600171417195
:101910008160C16001210174704721B1826842F089
:101920000102826003E0826822F001028260704757
:1019300021B1826842F48072826003E0826822F4FE
:1019400080728260704710B50023CBB21AB1446830
:101950001C43446002E044689C43446010BD8168BD
:1019600041F0080181607047014600208A6802F05A
:1019700008020AB1012000E000207047816841F0B0
:10198000040181607047014600208A6802F0040269
:101990000AB1012000E00020704721B1826842F4C2
:1019A000A002826003E0826822F4A0028260704795
:1019B000014600208A6802F480020AB1012000E09A
:1019C0000020704710B50A4600210023416821F429
:1019D0006041531E41EA4331416010BD21B142686C
:1019E00042F40062426003E0426822F40062426016
:1019F0007047F0B504460D4600200021092D11DD89
:101A0000E068A5F10A0606EB4607072606FA07F185
:101A10008843A5F10A0606EB460603FA06F10843D9
:101A2000E0600CE0206905EB4507072606FA07F1A0
:101A3000884305EB450603FA06F108432061072AAF
:101A40000FDA606B561E06EB86071F2606FA07F1B3
:101A50008843561E06EB860605FA06F108436063C6
:101A600022E00D2A0FDA206BD61F06EB86071F2611
:101A700006FA07F18843D61F06EB860605FA06F13B
:101A80000843206310E0E06AA2F10D0606EB86072A
:101A90001F2606FA07F18843A2F10D0606EB86061B
:101AA00005FA06F10843E062F0BD21B1826842F414
:101AB0008012826003E0826822F4801282607047A4
:101AC0000146C86C80B2704766484C300068704769
:101AD00021B1426842F48062426003E0426822F42D
:101AE00080624260704721B1426842F48052426095
:101AF00003E0426822F48052426070470A460021A7
:101B0000816821F4E04111438160704721B182680E
:101B100042F40042826003E0826822F40042826064
:101B2000704721B1826842F40212826003E0826849
:101B300022F4021282607047014600208A6802F493
:101B400000120AB1012000E000207047F0B5044601
:101B50001546002000220026092911DDE068A1F1C8
:101B60000A0707EB470C072707FA0CF29043A1F18D
:101B70000A0707EB470703FA07F21043E0600CE09F
:101B8000206901EB410C072707FA0CF2904301EBA7
:101B9000410703FA07F210432061A06BC0F301561E
:101BA000EF1C06F1010CA7EB0C0707EB870C1F27B6
:101BB00007FA0CF29043EF1C06F1010CA7EB0C079F
:101BC00007EB870701FA07F21043A063F0BD10B5D9
:101BD0000A4600210023816B21F44011531E41EA83
:101BE0000351816310BD08B5002300930090009B52
:101BF0000B440093009B1A6008BD08B50246002004
:101C00000090009201F12800009B18440090009879
:101C1000006880B208BD0A4600214168164B194091
:101C20001143416070474162826270470A46002159
:101C3000416821F01F0111434160704740B10949DB
:101C40000831096841F40001064A0832116007E0D2
:101C500004490831096821F40001024A0832116080
:101C6000704700000024014000280140003C014072
:101C7000FFFEF0FFFDF7F1FFFFFD3FFF02460020F2
:101C800013680B400BB1012000E000207047CA43ED
:101C90000260704770B502460020002300240B123A
:101CA0005568CEB205EA060415681D4015B10CB1A1
:101CB000012000E0002070BD00220A12D34303601F
:101CC0007047000010B50446CC48844208D1012179
:101CD000042000F02DFB0021042000F029FB46E049
:101CE000C748844208D10121082000F021FB0021CF
:101CF000082000F01DFB3AE0C248844208D10121CF
:101D0000102000F015FB0021102000F011FB2EE048
:101D1000BD48844208D10121202000F009FB0021A8
:101D2000202000F005FB22E0B848844208D10121C0
:101D3000402000F0FDFA0021402000F0F9FA16E002
:101D4000B348844208D10121802000F0F1FA00213B
:101D5000802000F0EDFA0AE0AE48844207D101216C
:101D6000801500F0E5FA0021A01500F0E1FA10BDA1
:101D700010B50121084600F0DBFA0021012000F037
:101D8000D7FA10BD2DE9F0410246002500260020BB
:101D900000230024002791F803C00CF00F0591F8F0
:101DA00003C00CF0100CBCF1000F03D091F802C07E
:101DB0004CEA050591F800C0BCF1000F31D0146861
:101DC00000202BE04FF0010C0CFA00F3B1F800C03A
:101DD0000CEA03069E4220D183004FF00F0C0CFA50
:101DE00003F7BC4305FA03FC4CEA040491F803C072
:101DF000BCF1280F06D14FF0010C0CFA00FCC2F820
:101E000014C00AE091F803C0BCF1480F05D14FF0AF
:101E1000010C0CFA00FCC2F810C0401C0828D1D3F9
:101E20001460B1F800C0BCF1FF0F34DD546800202D
:101E30002EE000F1080C4FF0010808FA0CF3B1F89D
:101E400000C00CEA03069E4221D183004FF00F0C24
:101E50000CFA03F7BC4305FA03FC4CEA040491F8BE
:101E600003C0BCF1280F05D100F1080C08FA0CF8EA
:101E7000C2F8148091F803C0BCF1480F07D100F1FB
:101E8000080C4FF0010808FA0CF8C2F81080401C4A
:101E90000828CED35460BDE8F0814FF6FF71018071
:101EA000022181700421C1707047024600209368AE
:101EB0000B400BB1012000E000207047014688680C
:101EC00080B2704702460020D3680B400BB101205E
:101ED00000E0002070470146C86880B27047016189
:101EE0007047416170470AB1016100E0416170478C
:101EF000C16070474FF480320A4382618161826120
:101F000082698269704702460020434B18684FF689
:101F10008073184040EA021008433F4B1860704736
:101F20003E49C8617047F0B50A46002300240021ED
:101F3000002500F00046B6F1004F02D1364EF1699F
:101F400001E0354E7168C0F3034583B200F44016DA
:101F5000B6F5401F08D121F070612F4E766826F04B
:101F600070662D4F7E6012E000F48016B6F5801F7B
:101F700006D1032606FA05F4A14341F0706106E09C
:101F8000460D360103FA06F6B14341F0706122B105
:101F9000460D360103FA06F6314300F00046B6F16D
:101FA000004F02D11C4EF16101E01B4E7160F0BD8B
:101FB00030B500228B071C0F0F2303FA04F2164BD7
:101FC00008338C1053F824309343134C08348D108D
:101FD00044F8253023468C1053F824308C07240F06
:101FE00000FA04F423430C4C08348D1044F82530D7
:101FF00030BD0A49DC31086070470000000801402C
:10200000000C014000100140001401400018014084
:10201000001C01400020014000000140000020425F
:10202000DF48006840F00100DD490860084640686C
:10203000DC490840DA49486008460068DA49084047
:10204000D74908600846006820F4802008600846E8
:10205000406820F4FE0048604FF41F00886070471D
:10206000CF49096821F48031CD4A116011460968D1
:1020700021F480211160B0F5803F03D0B0F5802FAE
:102080000ED106E0C649096841F48031C44A1160A6
:1020900007E0C349096841F4A021C14A116000E08A
:1020A00000BF00BF704710B501460022002300208A
:1020B0004A11012A02D1BA4C236806E0022A02D151
:1020C000B74C236A01E0B64C636A01F01F02012499
:1020D00094401C400CB1012000E0002010BD38B538
:1020E000002000900024002500BF3120FFF7DBFF17
:1020F00005460098401C00900098B0F5A06F01D0F4
:10210000002DF2D03120FFF7CEFF08B1012400E00E
:102110000024204638BD01460020A14A106820F066
:10212000F80040EAC10010607047A049086070479D
:10213000024600209A4B586820F47C1042EA0103C2
:102140001843974B58607047984908667047014696
:102150000020934A506820F0030008435060704705
:102160008F48406800F00C007047014600208C4A00
:10217000506820F0F000084350607047014600208E
:10218000874A506820F4E060084350607047014679
:102190000020834A506820F4605040EAC10050603B
:1021A000704729B17E4A527A02437D4B5A7204E04D
:1021B0007B4A527A82437A4B5A7270477B49D831B4
:1021C0000860704701460020754A506820F440407E
:1021D0000843506070470021714A20321170704AE4
:1021E00082F82010012802D004280AD104E001213D
:1021F0006B4A2032117005E00521694A20321170C6
:1022000000E000BF00BF704769490860704764493B
:10221000096A0143624A116270476549443908609E
:10222000704730B500210022002400235C4D6D680A
:1022300005F00C0121B1042905D0082923D105E0BE
:102240005C4D056022E05B4D05601FE0544D6D68FC
:1022500005F47012524D6D6805F48034022505EBCB
:1022600092421CB9544D554305600BE04C4D6D68CE
:1022700005F400351DB1504D5543056002E04D4D4C
:102280005543056002E04B4D056000BF00BF444D63
:102290006D6805F0F0010909484D6B5C0568DD408B
:1022A00045603F4D6D6805F4E061090A434D6B5C84
:1022B0004568DD4085603A4D6D6805F46051C90A96
:1022C0003E4D6B5C4568DD40C560354D6D6805F47D
:1022D0004041890B3A4D6B5CC568B5FBF3F5056170
:1022E00030BD29B12E4A526902432D4B5A6104E098
:1022F0002B4A526982432A4B5A61704729B1284AB6
:1023000092690243264B9A6104E0254A926982430E
:10231000234B9A61704729B1214AD2690243204B6D
:10232000DA6104E01E4AD26982431D4BDA617047CC
:1023300029B11B4AD2680243194BDA6004E0184AFB
:10234000D2688243164BDA60704729B1144A126989
:102350000243134B1A6104E0114A12698243104B85
:102360001A61704712494039086070470F49C864C4
:1023700070470B49C87170470948406A40F0807047
:1023800007494862704701460020054A92680A40A2
:102390000AB1012000E000207047014988727047AF
:1023A000001002400000FFF8FFFFF6FE000042426E
:1023B0008004424200127A0000093D004E100020C5
:1023C0005E10002010B50446FB48844209D101216B
:1023D0008803FFF7ADFF00214FF48040FFF7A8FF0F
:1023E00032E0F648844209D101214804FFF7ADFFED
:1023F00000214FF40030FFF7A8FF25E0F0488442A9
:1024000009D101218804FFF7A0FF00214FF48020AB
:10241000FFF79BFF18E0EB48844209D10121C80473
:10242000FFF793FF00214FF40020FFF78EFF0BE032
:10243000E548844208D101210805FFF786FF002105
:102440004FF48010FFF781FF10BD2DE9F04786B0F3
:1024500005460E460024A24600BFA1460027B089CB
:1024600000B100BF2F462C8A4CF6FF700440F08864
:1024700004432C82AC894EF6F3100440B0883189B5
:102480000843718908430443AC81AC8A4FF6FF408E
:102490000440B0890443AC8201A8FFF7C2FEC648DD
:1024A000874202D1DDF810A001E0DDF80CA0A88978
:1024B00000F4004040B10AEBCA0000EB0A1031689A
:1024C0004900B0FBF1F807E00AEBCA0000EB0A1084
:1024D00031688900B0FBF1F86420B8FBF0F004012A
:1024E0002009642101FB1089A88900F4004040B153
:1024F000322000EBC900B0FBF1F000F0070004430C
:1025000008E0322000EB09106421B0FBF1F000F08C
:102510000F0004432C8106B0BDE8F0874FF416513C
:10252000016000218180C18001810C214181002155
:102530008181704710B502460020108A4FF2FF03D8
:1025400018400B884C8823438C882343CC88234332
:102550001843108210BD0021018041808180C1801C
:10256000704721B1828942F40052828104E082895D
:102570004DF6FF731A4082817047F0B50346002480
:1025800000260025002040F66A17B94200D100BF9E
:102590001846C1F3421401F01F06012707FA06F599
:1025A000012C01D10C3004E0022C01D1103000E0EC
:1025B00014301AB107682F43076002E00768AF4381
:1025C0000760F0BD1AB1838A0B43838202E0838ADD
:1025D0008B4383827047028A4FF6F0731A4002825F
:1025E000028A0A430282704782894FF2FF731A40BF
:1025F000828182890A438281704721B1828942F0B7
:102600000202828104E082894FF6FD731A408281C2
:102610007047028A4FF6DF731A400282028A0A4329
:102620000282704721B1028A42F48042028204E0B1
:10263000028A4BF6FF731A4002827047C1F3080208
:102640008280704701468888C0F3080070478189FE
:1026500041F0010181817047028BD2B20283028B6B
:1026600042EA012202837047028B02F47F42028316
:10267000028B0A430283704721B1828A42F0200212
:10268000828204E0828A4FF6DF731A4082827047AA
:1026900021B1828A42F01002828204E0828A4FF6DF
:1026A000EF731A408282704721B1828A42F0080299
:1026B000828204E0828A4FF6F7731A408282704762
:1026C00021B1828942F40042828103E08289C2F30F
:1026D0000E028281704721B1828A42F400628282B6
:1026E00004E0828A4FF2FF731A4082827047828A26
:1026F0004FF6FB731A408282828A0A4382827047B5
:1027000021B1828A42F00202828204E0828A4FF67C
:10271000FD731A408282704702460020B1F5007FA7
:1027200000D100BF13880B400BB1012000E0002056
:10273000704701F40072B2F5007F00D100BFCA43B8
:102740000280704770B50246002400230025002057
:1027500040F66A16B14200D100BFC1F3421501F044
:102760001F03012606FA03F3012D02D19689334097
:1027700006E0022D02D1168A334001E0968A3340EA
:102780000C12012606FA04F41688344013B10CB179
:10279000012000E0002070BD10B50022002340F6AB
:1027A0006A14A14200D100BF0A1201249440A3B2CE
:1027B000DC43048010BD00000038014000440040AC
:1027C00000480040004C00400050004070470000AE
:1027D0000FB41CB5074B06AA7B44694600900598C8
:1027E00000F0A9FA0020694600F0B8FA1CBC5DF8B8
:1027F00014FB0000810500002DE9F0474FF0000AAE
:1028000089460446C0F820A02046E1688847002891
:1028100076D0252806D0D4E901219047206A401CB3
:102820002062F1E7E168204600258847C4F81CA033
:1028300006460027C4F818A02A2E09D0304600F01A
:10284000DDFF38B304EB8708303EC8F8186019E0A4
:1028500059F8041B204604EB87029161E168884720
:10286000012F064618D1E069002820DA25F020055E
:102870001DE0D8F8180000EB800006EB400030386F
:10288000C8F818002046E1688847064600F0B6FF01
:102890000028EED1012F0AD02E2E08D12046E16863
:1028A00088477F1C0646022F45F02005C4DBA0693F
:1028B000002803DA404245F00105A061E80701D095
:1028C00025F01005B6B1A6F14100192802D820362E
:1028D00045F400654A463146204625604D46FDF7E1
:1028E00085FC58B1012806D0ED1D25F0070000F148
:1028F000080989E704E005F1040985E730468AE71D
:10290000206ABDE8F087704770477047704770478E
:102910002DE9FF4F0C461E464FF0FF378BB0D2E932
:102920000001DDF860800A908A46C1F30A5505B9B6
:102930003D46002108464FF00000BAF1000F00F4B8
:10294000400005DA00EB80004FF4400101EA50003E
:102950004FEA9059B9F1010F00DDB9460A9850EAE3
:102960004A000ED044F61050A5F2FF3545432F140F
:10297000B8F1000F1ED07542291E1EDDC9F10002FC
:102980001CE0B8F1010F4FF0000001D0302103E04E
:10299000F24305E02154401CB042FBDB30460022EC
:1029A000002121540B99C1F80880C1E900200FB023
:1029B000BDE8F08FBD1B6D1CDEE74A4600DA6942B8
:1029C00006A800F05BFA06AB93E8070003AB83E8C8
:1029D000070050460A9900F035FB8DE80700A0F586
:1029E00000501F3800900398002D0ADD42F21F01AD
:1029F0004A460844002303A90390684600F09EFD60
:102A000009E0A0F500504A461F38002303A90390AF
:102A1000684600F0A8FD8DE807000004000C03D014
:102A20004FF0FF30410800E01046B8F1000F03D02E
:102A30000022009215461EE0751E05D400F098F99C
:102A4000303262556D1EF9D5B3460122084302D0DB
:102A500000227F1C04E02078302801D100227F1E54
:102A6000002A099784D01DE0112D07DA00F080F9C3
:102A7000303262556D1C50EA0102F5D1084302D094
:102A80000098C8B10EE00021681E05E0235C625C7E
:102A900063542254401E491C8142F7DBAB46A81BFD
:102AA000401E0990002004F80B000B98099AC0F80A
:102AB0000880C0E9002B7AE711264FF0000857E79D
:102AC0002DE9F04F88460446D21D22F0070191B04F
:102AD000D1E90001CDE90A0100F07CFE02460B9825
:102AE000C00F01D02D2007E02068810701D52B20E1
:102AF00002E0202101EAC000032A099001D0072A40
:102B000005DB03464146204600F078F90BE12078CA
:102B1000800601D5E06900E00620B8F1650F814626
:102B200006D0B8F1660F18D0B8F1670F70D131E058
:102B30000020B9F1110F009001DB112301E009F130
:102B400001030AAA01A90CA8FFF7E2FEDDE90C7057
:102B5000002609F10105834647E001204B4600901D
:102B60004FF000470AAA01A90CA8FFF7D1FEDDE942
:102B70000DB00C995D46002610B909F101000D1841
:102B8000B9EB050003D4C0F1FF3609F10105A5EB4F
:102B900009002BE0B9F1010F01DA4FF00109002023
:102BA000B9F1110F0090484601DD112300E0034602
:102BB0000AAA01A90CA8FFF7ABFEDDE90C704D468F
:102BC00000268346207800070AD4AB4500DA5D462C
:102BD00001A8012D04DD411911F8011C302907D08D
:102BE0004F4502DA17F1040F04DA012082460FE0A4
:102BF0006D1EEEE7002F02DCED1B3E4403E0781C67
:102C0000A84200DD7D1CB81B00F1010A4FF000470F
:102C10002078000703D4AA4501DB4FF0FF3A0021DA
:102C2000B7F1004F0DF143088DF8431024D0022076
:102C30002B23002F01DA7F422D230A21021EA0F14F
:102C4000010000DC5FB197FBF1FC97FBF1F201FBA7
:102C50001C7C17460CF1300C08F801CDEEE7A8F10A
:102C6000010003702188090501D5452100E0652197
:102C7000A0F1010800F8011C09980FA9A1EB0807B1
:102C8000FF1D00B10120411901EBEA70A169384430
:102C9000081A401EA0612078C00602D42046AFF377
:102CA0000080099828B1D4E901219047206A401C8E
:102CB00020622078C00622D52046AFF300801EE0B7
:102CC000002E04DBB34502DD01A8805D00E030206A
:102CD000D4E901219047206A401C2062761CAAF1A9
:102CE00001005FEA000A0AD100F03EF8C0680168FE
:102CF000405CD4E901219047206A401C2062281ED4
:102D0000A5F10105DCDC07E0D4E9012118F8010B8D
:102D10009047206A401C2062381EA7F10107F3DCAF
:102D20002046AFF30080032011B041E601694A1C40
:102D300002610878704700B58FB0CDE901310021FC
:102D4000059105497944CDE9031011466846FFF71E
:102D500053FD0FB000BD0000E5FFFFFF0A6802F859
:102D6000010B0A6070470000004870474C110020BA
:102D700030B5B0F10A024FEA900E71F100034EEA4D
:102D8000817EB0EB0E0061EB91014FEA101E4EEA1E
:102D9000017E10EB0E0041EB11114FEA102E4EEAAE
:102DA000016E10EB0E0041EB11214FEA104E4EEA7E
:102DB000014E10EB0E0041EB1141401841F10001B2
:102DC0004FEAD00040EA41704FEAD10110EB800594
:102DD0004FEA810444EA907444EB01046D1944EB1A
:102DE0000404521BA3414FF0000348BF0A3200D530
:102DF00030BD401C41F1000130BD00002DE9F04123
:102E00001F46044603260168072A01F4006004DB1C
:102E100008B116A505E016A503E008B115A500E068
:102E200015A521F010002060A069C01EA0610FB19F
:102E3000401EA0612046AFF300804FB1D4E90121CC
:102E400038469047206A401C2062C01C206206E081
:102E5000206AFAE7D4E9012115F8010B9047761EA4
:102E6000F8D22046AFF30080BDE8F0814E414E001D
:102E70006E616E00494E4600696E66002DE9F047AE
:102E8000814616468AB0354878440DC88DE80D0055
:102E900032487844801C03AC0DC884E80D0041F62C
:102EA0009B300844372190FBF1F290FBF1F5A5F13E
:102EB000800501FB12041B3C02D56442012000E0A6
:102EC0000020DFF898A080460027FA44AAF1BE0A45
:102ED0000EE0E0070AD03246684607EB47010123BF
:102EE0000AEB810100F03FFB8DE8070064107F1CB6
:102EF000002CEED1194F7F44AE3F19E0E80715D002
:102F000007EB04100DF1180A90E80E008AE80E0095
:102F1000C068F04201D1981908903246012306A9F1
:102F200003A800F020FB03AB83E807006D10641CCE
:102F3000002DE3D14FF0010332466946B8F1000F8E
:102F400003A802D000F0FAFA01E000F00CFBC9E996
:102F50000001C9F808200AB0BDE8F087EC1C0000A9
:102F6000004870472C1100207546FFF7F9FFAE4668
:102F700005006946534620F00700854618B020B585
:102F8000FEF7F8FBBDE820404FF000064FF00007C9
:102F90004FF000084FF0000B21F00701AC46ACE801
:102FA000C009ACE8C009ACE8C009ACE8C0098D466E
:102FB000704710B50446AFF300802046BDE81040CE
:102FC000FDF72EB94FF0013C50F8042B51F8043BAB
:102FD0009A4221D1A2EB0C03934313EACC1317D1ED
:102FE00050F8042B51F8043B9A4215D1A2EB0C0384
:102FF000934313EACC130BD150F8042B51F8043B44
:103000009A4209D1A2EB0C03934313EACC13DBD011
:103010004FF00000704700BFD01A01BAB1FA81F139
:1030200001F0180122FA01F0CB40C1F12001DBB21E
:10303000C0B2C01A2CFA01F3D11A914311EAC3119C
:10304000E6D170475FEA400C08BF91F0000F4FEAED
:103050008C234FEAC12243EA51514FEA1C5018BF5A
:1030600000F5F0404FEA300018BF41F000415FEA40
:103070006C5C00F02980BCF1FF3F08BF40F080404D
:103080007047130C06BF12044FF0100C4FF0000CE9
:10309000130E04BF12020CF1080C130F04BF12012F
:1030A0000CF1040C930F04BF92000CF1020CD30F2F
:1030B00004BF52000CF1010C11464FF00002A0F1C8
:1030C0001F00A0EB0C00704711F0004F08BF7047C5
:1030D00031F000413FF4D5AF0B0C06BF09044FF0AF
:1030E000100C4FF0000C0B0E04BF09020CF1080C81
:1030F0000B0F04BF09010CF1040C8B0F04BF8900F6
:103100000CF1020CCB0F04BF49000CF1010CCCF107
:103110002003A0EB0C0022FA03F302FA0CF241EABE
:10312000030100F10100704720F07F4C80EA0300AA
:1031300023F07F47ACEB070303F57C5300F000401E
:1031400003F1FF032DE980494FEA154B09B44FEA1B
:10315000144325EA0B4E24EA03480FF2042606EB3B
:10316000132749083E785FEA320203FB0667C7F57A
:10317000000707FB06F64FEA54374FEAD64606F13A
:10318000020607FB066CCCF1005C4FEA1C472CEAF8
:10319000074C07FB06F40CFB06F504EB15464FEA5B
:1031A000961634BF00204FF000404FEAD13706FB9F
:1031B00007FC4FEA1C4C0CFB0BF7D21B03FB0CF774
:1031C00061EB07010CFB0EF7B0EB074072EB174207
:1031D0000CFB08F734BFA2EB0742B2EB074261EBEE
:1031E00017414FEA0C444FEA910706FB07FC4FEAF0
:1031F0001C4C0CFB0BF7B0EBC74072EB573203FBD8
:103200000CF734BFA2EBC742B2EBC74261EB5731B8
:103210000CFB0EF7B0EBC70072EB57720CFB08F714
:1032200034BFA2EBC702B2EBC70261EB5771039F39
:103230004FEA816141EA921104EBCC044FEAD137A5
:103240004FEA826206FB07FC42EA90124FEA806076
:103250004FEA1C4C0CFB0BF7D21B03FB0CF761EB8A
:1032600007010CFB0EF7B0EB074072EB17420CFBAB
:1032700008F734BFA2EB0742B2EB074261EB1741FC
:103280004FEA8C554FEA910704EB9C2406FB07FCA0
:103290004FEA1C4C0CFB0BF7B0EBC74072EB5732FC
:1032A00003FB0CF734BFA2EBC742B2EBC74261EBA2
:1032B00057310CFB0EF7B0EBC70072EB57720CFBEB
:1032C00008F734BFA2EBC702B2EBC70261EB57713C
:1032D00015EB4C254FEA816141EA92114FEA826277
:1032E0004FEAD13742EA901206FB07FC44F1000492
:1032F0004FEA80604FEA1C4C0CFB0BF7D21B03FB20
:103300000CF761EB07010CFB0EF7B0EB074072EB1B
:1033100017420CFB08F734BFA2EB0742B2EB07429F
:1033200061EB174115EB1C154FEA813141EA9241DF
:103330004FEA823242EA90424FEA80304FEA0C76FE
:1033400044F1000448EA03434EEA0B484FF0000EF4
:10335000B2EB080C71EB030724BF624639464EEB13
:103360000E0E4FF0000B0018524149414BEB0B0B76
:10337000B2EB080C71EB03077BF1000B24BF624634
:1033800039464EEB0E0E4FF0000B001852414941EA
:103390004BEB0B0BB2EB080C71EB03077BF1000B53
:1033A00024BF624639464EEB0E0E51EA020718BFA3
:1033B00046F0010616EB0E7655F1000254F10001BD
:1033C00003D5BDE88901BDE80088BDE88901BDE8F5
:1033D0000048B619524141EB0101A3F101037047C6
:1033E00080807F7E7D7C7B7A797877767675747342
:1033F000727171706F6E6E6D6C6C6B6A6A69686801
:10340000676666656464636362616160605F5F5E96
:103410005E5D5D5C5C5B5B5A5A595958585757560C
:103420005655555554545353525252515150505071
:103430004F4F4F4E4E4D4D4D4C4C4C4B4B4B4A4AC3
:103440004A49494948484847474747464646454507
:103450004544444444434343434242424241414140
:10346000002B9C4630D477002BD01CB54FEA370791
:1034700003B44FF010004FF01001BAF1000F06D066
:10348000BCF1000FDCBF40F0080040F008014FF035
:1034900000000FBCBDE810400BF1010BBBF1010FA8
:1034A00008BF5FEA170722BF12F1010211F1010103
:1034B0004FF0004143F1000300F0004043EA0000F8
:1034C0007047F9D35708D0E746EA064613F1400F94
:1034D0004FEA16461FDD13F1200FDFBF16430A46E1
:1034E000002120335B42BED0C3F1200746EA0646E6
:1034F00002FA07F74FEA164646EA0706C3F1200725
:1035000022FA03F201FA07F721FA03F14FF0000360
:1035100042EA0702A7E746EA020646EA06464FEAFB
:10352000164646EA0106BCBF46EA0646360C4FF090
:1035300000034FF000024FF0000194E72DE9804CAA
:103540009A46934670B491E8380007C831EA400CB7
:1035500048BF34EA430C03D5FFF7E6FDFFF780FFD1
:10356000F0BCBDE8008C2DE9804C9A46934670B4BF
:1035700091E8380007C810F0804F08BF13F0804F63
:1035800003D100F005F8FFF76BFFF0BCBDE8008C3D
:1035900020F07F4780EA030023F07F4C07EB0C0309
:1035A000A3F57C5300F00040A3F1FE0392F0000F5E
:1035B00000F0B38095F0000F00F077802DE901490D
:1035C0004FEA11404FEA144621EA004800FB06FC8E
:1035D00024EA064708FB06F607FB08F800FB07F796
:1035E00018EB06484CEB164C4FEA124B18EB074809
:1035F0004FEA15464CEB174022EA0B4E0BFB06FC3C
:1036000025EA06470EFB06F607FB0EFE0BFB07F747
:103610001EEB064E4CEB164C4FF000061EEB074E11
:103620004CEB174B18EB0B0840F1000018EB0E0B9E
:1036300058EB000840F100008F1A4FF000013CBF2A
:10364000C943661B14BFB5EB040C00213CBFC94342
:10365000F61B4FEA17444EEA8E0E27EA04454FEA5E
:103660001C4704FB07622CEA074C05FB07F70CFB21
:1036700005F604FB0CFC16EB074642EB174216EB73
:103680000C4642EB1C421BEB060658EB0202414182
:1036900046EA9E0601D5BDE80189B619524141EBC3
:1036A0000101A3F10103BDE801894FEA14454FEA86
:1036B000114724EA054621EA074C05FB07F406FBFF
:1036C00007F70CFB06F105FB0CFC11EB074144EB83
:1036D00017444FEA124711EB0C4144EB1C4422EA19
:1036E000074C05FB07F206FB07F70CFB06F605FB8C
:1036F0000CFC16EB074642EB174216EB0C4642EB6E
:103700001C456A1854F1000148BF7047B619524170
:1037100041EB0101A3F10103704795F0000F37D091
:103720004FEA11424FEA144721EA024624EA074CC5
:1037300002FB07F106FB07F70CFB06F402FB0CFC8F
:1037400014EB074441EB17414FEA154714EB0C44C7
:1037500041EB1C4125EA074C02FB07F506FB07F786
:103760000CFB06F602FB0CFC16EB074645EB174577
:1037700016EB0C4645EB1C42121951F1000148BFF3
:103780007047B619524141EB0101A3F101037047A3
:103790004FEA14454FEA114724EA054621EA074C4F
:1037A00005FB07F106FB07F70CFB06F24FF00006DE
:1037B00005FB0CFC12EB074241EB174112EB0C42EC
:1037C00051EB1C4148BF7047921841EB0101A3F136
:1037D00001037047490050EAC12018BF04204A0D78
:1037E00018BF40F0010040F2FF72B2EB515F08BF1A
:1037F00040F00200012808BF0520704730380A2831
:1038000001D20120704700207047000010B5002948
:103810000AD00878002807D005487844FFF7D2FB83
:10382000002801D0002010BD0248784410BD0000DF
:10383000961300008E13000021F00042A2F16052A6
:10384000B2F5801F01F0004328BFD2F17F6C0BD985
:103850005FEA001C43EAC20242EB507018BF704797
:1038600028BF20F001007047B2F5801FBCBF18468A
:1038700070474FEA410C1CF5001F02D2084600F0C9
:10388000B4BC70B500F00AFA00000089FFF7F6BF7B
:103890004FF00040A0F580007047000010B591EA9D
:1038A000030F48BF83F0004300F15482841A71EB88
:1038B000030C05D2121943EB0C03001B61EB0C0146
:1038C000DFF824E14FEA1154A4EB135C1EEA430F26
:1038D00018BF9EEA445F73D023EA0E03DCF1200E8A
:1038E00021EA045143F4801332D322FA0CFE10EB88
:1038F0000E0023FA0CFE41EB0E01CCF1200E03FA70
:103900000EFE10EB0E0051F10001B1F5801FCCF15D
:10391000200E32D201EB045112FA0EF2BDE8104033
:1039200058BF7047401C38BF5FEA420218BF70475B
:10393000002814BF20F0010041F100014FEA4103CB
:1039400013F5001F38BF7047A1F1C04100F0F4B972
:10395000012A43EB0302ACF1200CDCF11F0E32BF55
:103960004FF0000E23FA0CF310EB030041EB04516F
:10397000B4EB115FD0D0A1EB045101F580114908DF
:103980005FEA300001EB04510ED350F1000038BF64
:1039900012FA0EFE08D1BDE81040C9E7401C38BF3E
:1039A0005FEA4202CAD1C3E7BDE810404FEA4103D3
:1039B00013F5001F38BF7047A1F1C04100F0BCB93A
:1039C0009EEA445F08D011EA5E0FBDE8104004BFD4
:1039D00001F0004100207047BDE8104070B500F0D4
:1039E0005DF900BF64FBBE3E0000E0FF2DE9C04171
:1039F00030B4DFF8A0C23CEA111418BF3CEA13143B
:103A000000F0EC8081EA03051CEA111444EAD57445
:103A100018BF1CEA131500F0C780A4EB05044FF093
:103A2000004545EAC12145EAC32341EA505143EA32
:103A3000525304F17F74994204F500344FEAC020D8
:103A40004FEAC22208BF904200F09C804FEA136503
:103A50000FF24016765D4FEA134506FB05F7C7F1F6
:103A6000807706FB07F74FEAD737A7FB0368764254
:103A7000C8F58038A7FB06CE38BFA8F1010807FBC0
:103A800008E64FF0000EA6FB028CE6FB03CEDCF14D
:103A9000000CCEF1004E38BFAEF1010EA6FB0C5863
:103AA0004FF000074FF00005E6FB0E87A1FB08C6AC
:103AB000A0FB07CE16EB0E0645F10005E1FB0765FE
:103AC00015F1E04E7EBFA4F580345FEA46066D41F5
:103AD00016F1800745F100054FEA17274FEA066601
:103AE00047EA0567A6F1DE46B6F1805F4FEA152585
:103AF0001FD9384624F0010C05EBC471BCF1FE6FF0
:103B000001EB0C1102D8F0BCBDE8008124425CBF7F
:103B100001F5801E9EEAC47F02D4F0BCBDE800819E
:103B2000244238D4F0BCA1F1C041BDE8004100F00E
:103B300003B94FEAD22242EA43524FEAD323A7FB0A
:103B400002864FEAD02040EA415007FB03661EEA96
:103B50000E0F4FEAD12105FB026658BFA6EB0056B7
:103B6000B6EB00564FEA520E4EEAC37E18EB0E0E2D
:103B700056EB530EBDD518EB02085E417F1C55F184
:103B80000005B6E74FF480154FF000074FF0000630
:103B90004FF00008ADE7F0BC4FF0000001F1C0416C
:103BA00001F00041BDE8008111EA0C1F0CEA131579
:103BB00000D00CE013EA0C1F00F025804FF000004D
:103BC000F0BC81EA030101F00041BDE80081F0BCD6
:103BD000BDE8004181EA030100F0AEB8F0BCBDE8E9
:103BE000004170B500F05AF8097EFC3E00F007B8BD
:103BF00081EA03014FF0000001F00041704781EAC3
:103C0000030100F099B8F0BCBDE800414FF000009E
:103C100021497047FFFDFBF9F7F5F4F2F0EEEDEB0B
:103C2000E9E8E6E4E3E1E0DEDDDBDAD8D7D5D4D3BA
:103C3000D1D0CFCDCCCBCAC8C7C6C5C4C2C1C0BF06
:103C4000BEBDBCBBBAB9B8B7B6B5B4B3B2B1B0AF0C
:103C5000AEADACABAAA9A8A8A7A6A5A4A3A3A2A1F0
:103C6000A09F9F9E9D9C9C9B9A99999897979695AB
:103C700095949393929191908F8F8E8E8D8C8C8B47
:103C80008B8A8989888887878685858484838382CF
:103C9000828181800000FF070000F87F0EF1020E94
:103CA0002EF0030E5EF8046B364205D4012A43EB76
:103CB000030515F5001F12D8012841EB010C1CF576
:103CC000001F0CD80ED14FEAD17C15F5001F0CEB6C
:103CD0004C0C0CF1020C08BF4CEBD37C04E04FF011
:103CE000080C01E04FEAD37C0CEB4C0526FA05F6F4
:103CF00006F00706B6F1040C06D20EEB860CBDE802
:103D000070404CF0010C6047DFE80CF0090B020238
:103D10004FF000414FF00000A1F5002170BD1946A1
:103D20001046012851EB010418BFD4F5001484BFDC
:103D3000002001F0004170BD0808A0F500114FEA15
:103D40003101704710B591EA030F48BF83F000437B
:103D50003FF5ACAD841A71EB030C07D212198CF04D
:103D6000004C43EB0C03001B61EB0C01DFF8A4E1FA
:103D70004FEA1154A4EB135C1EEA430F18BF9EEAEE
:103D8000445F00F0B08023EA6E03524221EA0451FE
:103D9000C3EB6E0338BF5B1EDCF1200E25D322FA85
:103DA0000CFE10EB0E0043FA0CFE41EB0E01CCF1C1
:103DB000200E03FA0EFE10EB0E0051F10001CCF1C3
:103DC000200E29D412FA0EF201EB0451BDE8104086
:103DD00058BF7047401C1CBFB2F1004F704700280D
:103DE0000CBF491C20F00100704712EB020E43EBA0
:103DF000030218BF4FF0010E4EEA4202ACF1200C54
:103E0000DCF11E0E54D943FA0CFE10EB0E0051F1FA
:103E1000FF31CCF11E0ED5D50EF1010E12FA0EFEB9
:103E2000404141EB010101EB445C5FEA5C5C10D96D
:103E300010EBDE7001EB045138BFBEF1004FBDE85E
:103E4000104018BF704700280CBF491C20F001002B
:103E5000704730D24FEAD42C11F5001124F40064DD
:103E60001BD0B1FA81F20B3AA41AA41ED2F120039E
:103E7000914030FA03F31943904001EBCC71002CD0
:103E800001EB0451BDE81040A8BF704701F1C041EB
:103E90004FF0000001F000417047B0FA80F310FAD3
:103EA00003F100D110BDE41A173C4805C90AE4E744
:103EB00001EB045110BD491001EB0451BDE8104065
:103EC0004FEA300002E04FF0000170474A0008BF9F
:103ED0000042F8D0B2F5001F28BF704701F0004142
:103EE0004FF0000070479EEA445F07D011EA5E0F72
:103EF000BDE8104004BF002100207047BDE810401D
:103F000070B5FFF7CBFE00BF40DFF63E83F0004107
:103F1000104670470000E0FF43004FEAD30C4FEA21
:103F20003C0C43401FBF40070CF1605113F0FE4FA3
:103F300070471CF0006F03D100200CF00041704767
:103F40000CF0004343EA507010B540EACC0000F09A
:103F500006F900BF000000924FEA0001FFF7ECBE37
:103F60004FF000414FF00000A1F500217047000024
:103F700090EA010F48BF81F0004100F14281421AEE
:103F80003CBF801A89184FEAD0524FF07F4C1CEA90
:103F9000410FA2EBD15318BF9CEA026F00F03B80A7
:103FA0004FF0004C4CEA00204CEA012121FA03FCBE
:103FB00010EB0C0C1ED202F1FF325FEA1C2040EB2A
:103FC000C25038BF70471CF07F0F4FEA400C18BF3B
:103FD000BCF17F4F38BF7047C3F12003994008BF41
:103FE00020F00100BCF17F4F38BF7047A0F1C04006
:103FF00000F0FBB84FEA3C00000A40EBC25028BF7B
:104000001CF0FF0F4FEA400CE6D018BFBCF17F4F09
:1040100038BF7047EAE79CEA026F05D010EA5C0FF0
:1040200008BF00F00040704710B500F098F800BFDE
:1040300064FBBE3EB0FA80F310FA03F2C3F19D03B5
:104040000AD0D90501EB1220530638BF704700F1A2
:10405000010008BF20F00100704700004FF47F0C02
:104060001CEAD0121EBF1CEAD11392EA0C0F93EA8D
:104070000C0F00F0478090EA010F48BF42F48072B5
:104080004FF0004C4CEA00204CEA012102EB030205
:10409000A0FB0113A2F50002002918BF43F00103A1
:1040A0005B0028BF4FEA330342EB22425FEA132C46
:1040B0004CEBC2502EBFBCEB436FB2F57C0F704788
:1040C0004FEA036CBCF1004F08BF20F00100B2F5CD
:1040D0007C0F38BF70470BD582F0FF0212F5803F8E
:1040E000C8BF704700F1C040D8BF00F00040704723
:1040F00000F5000C5FEA4C0C48BF7047B0F1C040BF
:1041000000F073B890EA010F0CEAD11348BF42F4F3
:104110008072624538BF634504D280EA010000F036
:104120000040704710B500F01AF800BF8900013E4A
:1041300000F007B800F009B85FEA410C5FEA1C6CB8
:1041400008D080EA010000F050B85FEA400C5FEA56
:104150001C6CF6D14FF00040A0F5800070470EF1C6
:10416000020E2EF0030E5EF8044B244204D44FEAF4
:104170004102B2F17F4F11D84FEA4003B3F17F4FB4
:104180000CD80ED14FEAD07CB2F17F4F0CEB4C0C27
:104190000CF1020C08BF4CEBD17C04E04FF0080C92
:1041A00001E04FEAD17C0CEB4C0324FA03F404F059
:1041B0000704B4F1040C06D20EEB840CBDE81040E9
:1041C0004CF0010C6047DFE80CF0070802024FF0EA
:1041D0000040A0F5800010BD0846420018BFD2F193
:1041E000807288BF00F0004010BDFF2141EAD0502E
:1041F000C005704790EA010F48BF81F000413FF5CC
:10420000BEAE421A04D882F00042A0EB0200114474
:104210004FEAD0524FF07F4C1CEA410FA2EBD15332
:1042200018BF9CEA026F4AD04FF0004C4CEA0020C5
:104230004CEA012121FA03FCB0EB0C0C0FD412F074
:10424000FE0F36D05FEA4C001DD5001240EBC25085
:1042500038BF70471CF03F0F18BF70470BE0A2F14A
:1042600001025FEA1C2040EBC25038BF70471CF0CF
:104270007F0F18BF7047C3F12003994014BF401E41
:1042800020F00100704780084FEA122308BF7047F2
:10429000B0FA80FCA2EB0C02CCF1280C60FA0CF016
:1042A00093EA122F04BF00EBC25070474FEAC3706D
:1042B0007047130A5FEADC1008BF7047F6E79CEA14
:1042C000026F04D010EA5C0F08BF0020704710B5E1
:1042D000FFF745FF40DFF63E81F000407047FEF7F4
:1042E000EFBB0000000000000000002F00000000F5
:1042F0000700070000147F147F1400242A7F2A126D
:10430000006264081323003649552250000005035B
:10431000000000001C224100000041221C0000148B
:10432000083E08140008083E0808000000A06000CD
:10433000000808080808000060600000002010085D
:104340000402003E5149453E0000427F40000042C9
:1043500061514946002141454B31001814127F102C
:10436000002745454539003C4A494930000171095B
:10437000050300364949493600064949291E00000F
:1043800036360000000056360000000814224100B6
:1043900000141414141400004122140800020151E6
:1043A000090600324959513E007C1211127C007FEF
:1043B00049494936003E41414122007F4141221C8A
:1043C000007F49494941007F09090901003E4149EF
:1043D000497A007F0808087F0000417F41000020E3
:1043E00040413F01007F08142241007F404040408F
:1043F000007F020C027F007F0408107F003E4141D5
:10440000413E007F09090906003E4151215E007FBF
:10441000091929460046494949310001017F010136
:10442000003F4040403F001F2040201F003F4038D9
:10443000403F006314081463000708700807006118
:104440005149454300007F41410000552A552A55F6
:10445000000041417F00000402010204004040408E
:104460004040000001020400002054545478007FB2
:104470004844443800384444442000384444487F89
:1044800000385454541800087E0901020018A4A4EE
:10449000A47C007F080404780000447D40000040B4
:1044A00080847D00007F102844000000417F400090
:1044B000007C04180478007C080404780038444424
:1044C000443800FC242424180018242418FC007C00
:1044D0000804040800485454542000043F44402079
:1044E000003C4040207C001C2040201C003C403010
:1044F000403C004428102844001CA0A0A07C00449C
:1045000064544C44141414141414000000000000EB
:1045100000000000000000000000000000F80000A3
:104520000000000000333000000000100C06100CEA
:104530000600000000000000000040C07840C07885
:104540004000043F04043F040400007088FC08306D
:104550000000001820FF211E0000F008F000E01805
:10456000000000211C031E211E0000F008887000BE
:1045700000001E2123241927211010160E00000010
:1045800000000000000000000000000000E018042F
:104590000200000000071820400000020418E0009C
:1045A00000000040201807000000404080F08040DC
:1045B00040000202010F01020200000000F00000B2
:1045C00000000101011F01010100000000000000C6
:1045D000000080B07000000000000000000000003B
:1045E00000000001010101010101000000000000C4
:1045F000000000303000000000000000000080607B
:104600001804006018060100000000E010080810FF
:10461000E000000F102020100F00001010F8000024
:1046200000000020203F20200000007008080888BB
:10463000700000302824222130000030088888488B
:1046400030000018202020110E000000C02010F8BB
:10465000000000070424243F240000F8088888088C
:1046600008000019212020110E0000E01088881891
:104670000000000F112020110E0000380808C83873
:1046800008000000003F0000000000708808088853
:104690007000001C222121221C0000E010080810DC
:1046A000E0000000312222110F00000000C0C00015
:1046B000000000000030300000000000008000001A
:1046C000000000008060000000000000804020101A
:1046D0000800000102040810200040404040404013
:1046E0004000040404040404040000081020408076
:1046F00000000020100804020100007048080808AB
:10470000F0000000003036010000C030C828E8107A
:10471000E0000718272423140B000000C038E00035
:104720000000203C23020227382008F8888888707F
:104730000000203F202020110E00C030080808088B
:104740003800071820202010080008F80808081072
:10475000E000203F202020100F0008F88888E8089B
:104760001000203F20202320180008F88888E8083F
:104770001000203F200003000000C0300808083867
:10478000000007182020221E020008F80800000878
:10479000F808203F210101213F20000808F80808FF
:1047A00000000020203F2020000000000808F8083A
:1047B0000800C08080807F00000008F888C02818AA
:1047C0000800203F20012638200008F808000000DB
:1047D0000000203F20202020300008F8F800F8F8E2
:1047E0000800203F003F003F200008F830C00008CC
:1047F000F808203F200007183F00E01008080810C4
:10480000E0000F10202020100F0008F8080808080A
:10481000F000203F210101010000E010080808100D
:10482000E0000F18242438504F0008F88888888842
:104830007000203F2000030C30200070880808081A
:1048400038000038202121221C00180808F8080828
:1048500018000000203F2000000008F808000008B1
:10486000F808001F202020201F000878880000C8BA
:104870003808000007380E010000F80800F80008AA
:10488000F800033C0700073C0300081868808068B4
:10489000180820302C03032C30200838C800C838F2
:1048A00008000000203F2000000010080808C83859
:1048B00008002038262120201800000000FE0202F7
:1048C00002000000007F40404000000C30C00000AB
:1048D0000000000000010638C00000020202FE00D5
:1048E0000000004040407F0000000000040202027F
:1048F00004000000000000000000000000000000B4
:10490000000080808080808080800002020400009F
:104910000000000000000000000000008080808097
:1049200000000019242222223F2008F80080800085
:104930000000003F112020110E0000000080808048
:104940000000000E1120202011000000008080884F
:10495000F800000E112020103F2000008080808091
:104960000000001F222222221300008080F088888D
:1049700088180020203F20200000000080808080D8
:104980008000006B94949493600008F8008080800D
:104990000000203F210000203F2000809898000068
:1049A00000000020203F2020000000000080989898
:1049B000000000C08080807F000008F80000808038
:1049C0008000203F24022D302000000808F800005D
:1049D00000000020203F2020000080808080808018
:1049E0008000203F20003F20003F808000808080AA
:1049F0000000203F210000203F20000080808080B8
:104A00000000001F202020201F00808000808000E8
:104A1000000080FFA12020110E0000000080808097
:104A20008000000E112020A0FF8080808000808008
:104A3000800020203F212000010000008080808035
:104A400080000033242424241900008080E080802A
:104A500000000000001F2020000080800000008077
:104A60008000001F202020103F20808080000080D8
:104A7000808000010E3008060100808000800080E8
:104A800080800F300C030C300F000080800080808D
:104A900080000020312E0E312000808080000080B8
:104AA000808080818E701806010000808080808068
:104AB00080000021302C2221300000000000807C8A
:104AC000020200000000003F404000000000FF0024
:104AD000000000000000FF0000000002027C8000D7
:104AE00000000040403F00000000000601010202FB
:104AF000040400000000000000000000024000006C
:104B0000000000A00000000005400000000000C8F8
:104B1000000000000C4000000000409C000000006D
:104B2000194000000020BCBE00000000344000001E
:104B3000BFC91B8E00000004B5400000504BCFD011
:104B40006607E2CF010000006C4100003E8251AADE
:104B5000DFEEA73401000000D9420000DCB5A0E27E
:104B60003A301F97FFFFFFFFB4450000FD25A0C8A6
:104B7000E9A3C14FFFFFFFFFFF3F000000000080DF
:104B800000000000FF3F0000000000800000000067
:104B9000CC4B000800000020641000006C010008ED
:104BA000C4510008641000202C070000D001000848
:104BB0001C00000043000000F8FFFFFF0C00000095
:104BC0000E0000000F0000002E000000500600A2A2
:104BD0004A040001101401020304060708090140F9
:104BE00042CC0000445454547F040004104440005C
:104BF00001000C117F201000FF15151555957F1E23
:104C0000224041000912504EC8487FC848483F0022
:104C10000E1040201F20504C4340404F50505C60CD
:104C2000F0101010FF100082864A52A2524A86806D
:104C3000807E100B42827F010010121212FF0402CC
:104C400011106011A142490101129F200B00814106
:104C5000211D214181FF890103108181A0000E10D7
:104C6000028282422212FA0622224242821F100946
:104C7000010100FC444444450412FC0E0111E122F0
:104C8000080132FF0601111E000F1201014161519E
:104C900049474141415161C101401004F808880170
:104CA00012FF0503102818C0040E1180601F8080B9
:104CB000434428102844438020161041000C1090D3
:104CC00020988888E98E8888A898DF174281B710D5
:104CD0000480844B420210473F330002012006FE4D
:104CE000020242820B05136138040000FF340611F2
:104CF0000660000E1180804020504844C344485054
:104D00002040A01921153F23447F050A11405F1858
:104D100008404454654644647B000512FE0222DAD2
:104D200062137E2201127E84000510081008079B82
:104D300011BB12F2C1154851A7D540080D124720EA
:104D40001807081027C0000F4080C1100920222C2E
:104D50002020E03F20010212E0E0080D1340201067
:104D600008060100014680403F7F097E00000D10CB
:104D7000D0FF9014E4AFA4A4A4AFE4049E170403EE
:104D8000BD000A12894B2A1A0E1A2A4B884022901B
:104D9000012D87030C041110111661031805206002
:104DA000203F6504084F00030C102040F8C0140891
:104DB0007E4A52FE524A7E7E26FF8AFD1E030C105A
:104DC00014E90969076505B540300E010E304080D1
:104DD000800479A30D13200418043F9048040005B3
:104DE0001100071820401580000A10494A4C48F865
:104DF000484C4A49DE25205F13127E040404111238
:104E0000131020080D118060F8074020900C030C4F
:104E10009020E115F22EFFC5030116A20D7E40057C
:104E20001720209E52E2040F1320200003270C03BA
:104E300046124001021078401C08100CF312125266
:104E400092A2050E12F23F040C0F1001011F111166
:104E50001115195191513F1111000310050404E47B
:104E60002401223F050B10E404C11DFD041C042293
:104E7000120EA3040C06107E82828380A2032938BE
:104E8000140520F8092AC207112A09C12009103087
:104E90001F080801FD55010E11FD7F03422001523C
:104EA000FF080D13E004250139FF0D12E0041C0476
:104EB000020CC0C3051C0448484804040F11098AA9
:104EC00060052E7F39040C09121E925E20173846A9
:104ED000F15D055EE0610509139F1E08C1036E00C8
:104EE000BA040710010E40040E1084E45C44C42090
:104EF00010E82724E4342C201C0702017F10103F07
:104F000046060C074F09093F49897F400341400885
:104F10000915FC24A4242222A362C00C0A125847BB
:104F20005048454245485060082DC105493E0E1481
:104F3000FEDF071804202027220005172720207FE6
:104F4000A32AFF9D0D125F06420019427F070D1133
:104F5000A003C28001023000016004FE1292010E23
:104F6000139EC0071C060444E4544C04070C0411AF
:104F70005464C4A1052007003E2A2AAA6A050F121C
:104F80002A3EC1080C0D12804829094D8D7B0B0962
:104F9000284C98BF06100A2424A4FE232220FC04D7
:104FA000010E11FCC0041DBD06000C12FF0106809D
:104FB000631901010933C0C11C04F1121446080B26
:104FC0001314129D0C102F403000033941414559F4
:104FD00041417300083000081DA0050C0B124A72F5
:104FE00042427F4242625A4201081C0C8C44B52660
:104FF000A4640C02F21AD642040111C0000D11FC87
:105000004A494AFC08804F300F102FC011BB2007BF
:1050100010D030FF30D0090512003C04040209A072
:105020000700051109020408210C0C12020C806013
:105030008040300FC8080880091D79041E01E3086C
:105040000C051318060106000315391ED43E0B0C7F
:105050000711FC525252D31220061C0540405057F3
:105060007B04127F040B115750801D770843BEAAA2
:10507000010E12BE800419A112AF1C12FF200E12E5
:10508000AF5F0945FF11C0021408C135FF1C0502BE
:10509000100C43430411C30D53000A156416C35C7E
:1050A0000D1420050E1C005E042F403C7A080C08ED
:1050B0001120108F7808F808C0050C0D13020602A5
:1050C000FF010104422118468181092D800729032F
:1050D0000B13FFD0002D800711A01E0B9E050A1296
:1050E0000B002C072030AC632018C0052E7FC405B0
:1050F000F5601C04226722790C200400FE42010D99
:1051000011A1045DC0060E16FFC0060C0E11404032
:105110002722120A06FF060A1222278004053EC033
:10512000093E804DBF0A0C041509FA08C10A1F4048
:1051300040BB0C300441417F060112402DBE050CDE
:1051400004161A16D200081D61053F4F40830B0F4D
:1051500012204F7E091F02027D083FF22E840802B2
:1051600013E2411DDC052DE20D1DC3050914455355
:10517000E282010D143F064DB9084D07060E507826
:1051800040030D3EC0030D3E80044D020E5210053B
:105190000D119F0C2C0604844424171D060C0512C7
:1051A0001724448480069DD60EF3803F130D1BFB0D
:1051B000062D46106D4A1000070002040608000084
:0451C00000000000EB
:0400000508000131BD
:00000001FF
